:020000007C285A
:10000800FF00030E8301B6000A08B5008A019B3081
:100018008100AF0A0319B00A0B1135088A00360EA1
:080028008300FF0E7F0E0900AA
:0E003000831203132D088A002C08820008009A
:10003E0018208A110A128000840AAC0A0319AD0A2C
:08004E00F003031D1F28080048
:1000560083120313FD01F8017008031900347406B6
:10006600FA00FA1BFD09FB01F41F3B28F409F40A08
:10007600F01F3F28F009F00A70087404FA00FA1B12
:1000860063287408F802F00D700DF80D7408F8076F
:10009600F00D0630FC00700DF80D74087018F802AB
:1000A600701CF807F00DFC0B4E28701CF8077B1827
:1000B6007128FD1F0034F009F00AF809F80A003427
:1000C600F41F6E28F01B6B287008F800F0015C28FE
:1000D600F001F00A0034F009FB0A4428F80A740813
:1000E6007802031D5C28F801F00AF01F5C28FF3433
:0200F600080000
:1000F8003F3083120313A0000630A1005B30A2003A
:100108004F30A3006630A4006D30A5007D30A600F6
:100118000730A7007F30A8006F30A900FF309F008C
:100128000130831681008B178B169B308312810058
:10013800831686011F3085008312AB01B40133108A
:100148003311B31080303006F0008030093A700265
:10015800031DB028C4302F02031CD128AF01B00101
:10016800331CD128AB0380302B06F0008030003AD6
:1001780070020318D1283B30AB00B403803034063A
:10018800F0008030003A70020318D1288316051257
:1001980083120512B401AB0133108518E228051C3F
:1001A800D62833150518E128331DE1283311AB0A89
:1001B8002B083C3A031DE128AB01F028051CE52873
:1001C80033150518F028331DF0283311B40A340804
:1001D8003C3A031DF028B401051DF328B314051992
:1001E800FA28B31CFA28B3100130B3060A30F40019
:1001F8003408F0002B207008AE000A30F4003408F0
:10020800F0002B207808F0007008B2000A30F400E3
:100218002B08F0002B207008B1000A30F4002B08DE
:10022800F0002B207808F0007008AA0085183B29F8
:10023800403085002A08203E8400000886000230ED
:10024800FC004B30FD00FD0B2729FC0B27298030D3
:1002580085003108203E8400000886000230FC003A
:100268004B30FD00FD0B3629FC0B3629592940304F
:1002780085003208203E8400000886000230FC0019
:100288004B30FD00FD0B4629FC0B462980308500CC
:100298002E08203E8400000886000230FC004B3007
:0E02A800FD00FD0B5529FC0B5529A6285A29EF
:02400E00382157
:00000001FF
